:03000000020AD21F
:0C0AD200787FE4F6D8FD758169020B19ED
:1007E4004F4B002B4350494E3A2052454144590047
:1007F40031003500534D5F50002B434D0053485595
:1008040054204F4B002E00434F4E4E454354204F2F
:100814004B003E002C22222C0041542B4346554EC3
:100824003D300D0A0041542B4346554E3D310D0ACF
:100834000041540D0A0041542B4350494E3F0D0AC8
:100844000041542B435245473F0D0A0041542B436A
:1008540053510D0A0041542B434950534855540DEC
:100864000A0041542B43474154543D300D0A004182
:10087400542B43504D533F0D0A0041542B434D47D5
:10088400523D0041542B434D47443D0041542B43BA
:100894005354543D22434D4E4554220D0A004154B5
:1008A4002B43494943520D0A0041542B43494653B3
:1008B400520D0A0041542B43495053544152543D64
:1008C40022544350222C223139332E3131322E39E5
:1008D400342E3534222C2239303031220D0A004195
:1008E400542B43495053454E440D0A0041542B4365
:0A08F4004950434C4F53450D0A00D4
:10060000203C10000000000000000000000000007E
:1006100000000000000000000000000000000000DA
:1006200000000000000000000000000000000000CA
:1006300000000000000000000000000000000002B8
:1006400008000061900000000000000000000000B1
:10065000000000000000000000000000000000009A
:10066000000000000000000000000000000000008A
:10067000000000000000000000000000000000007A
:10068000000000000000000000000000000000006A
:10069000000000000000000000000000000000005A
:1006A000000000000000000000000000000000004A
:1006B000000000000000000000000000000000003A
:1006C000000000000000000000000000000000002A
:1006D000000000000000000000000000000000001A
:1006E000000000000000000000000000000000000A
:1006F00000000000000000000000000000000000FA
:1007000000000000000000000000000000000000E9
:1007100000000000000000000000000000000000D9
:1007200000000000000000000000000000000000C9
:1007300000000000000000000000000000000000B9
:1007400000000000000000000000000000000000A9
:100750000000000000000000000000000000000099
:100760000000000000000000000000000000000089
:100770000000000000000000000000000000000079
:100780000000000000000000000000000000000069
:100790000000000000000000000000000000000059
:1007A0000000000000000000000000000000000049
:1007B0000000000000000000000000000000000039
:1007C0000000000000000000000000000000000029
:1007D00000000000000000020A0000020E000002FB
:0307E0000C00000A
:0A0D0000E4F54CF58012002680FB9C
:0F002600E54C7005120CBE8071E54C640170381A
:10003500F508F5097BFF7A08791D120C5E7F647E51
:1000450000120C837561FF7562077563E47B007AA6
:10005500007910120B5E8B4F8A508951E94A4B602B
:0800650004754C0222020003A5
:06006D00E54C6402703B4B
:10007300F508F5097BFF7A087929120C5E120D0A3F
:100083007561FF7562077563E47B007A007910126E
:100093000B5E8B4F8A508951E94A4B6004754C03C0
:0B00A300221200037F647E00020C8329
:0600AE00E54C6403703410
:1000B400F508F5097BFF7A087935120C5E120D0AF2
:1000C4007561FF7562077563E47B007A007910122D
:1000D4000B5E8B4F8A508951E94A4B70030205FF2E
:0300E400754C0454
:0700E70022E54C6404704C9B
:1000EE00C3E54E9414E54D6480948040028050E444
:1000FE00F508F5097BFF7A08793A120C5E120D0AA3
:10010E007561FF7562077563E77B007A00791012DF
:10011E000B5E8B4F8A508951E94A4B6006754C0530
:0B012E000205C8054EE54E7002054DAD
:0701390022E54C6405707320
:10014000D3E54E9432E54D648094804006754C01B1
:100150000205C8E4F508F5097BFF7A087945120C19
:100160005E120D0A7561FF7562077563F47B007A94
:10017000007910120B5E8B4F8A508951E94A4B600F
:1001800006754C060205C87561FF7562077563F652
:100190007B007A007910120B5E8B4F8A508951E9EF
:1001A0004A4B6006754C060205C8054EE54E7002C6
:0201B000054DFB
:0701B20022E54C6406704DCC
:1001B900D3E54E9432E54D648094804006754C0138
:1001C9000205C8E4F508F5097BFF7A087950120C95
:1001D9005E120D0A7561FF7562077563E47B007A2B
:1001E900007910120B5E8B4F8A508951E94A4B6096
:0C01F900030205FC054EE54E7002054DAA
:0A02050022E54C6407600302037851
:10020F007580807F05FE120C83E4F580C3E54E9464
:10021F0032E54D648094804006754C030205C8E4B6
:10022F00F508F5097BFF7A087973120C5E120D0A37
:10023F007561FF7562077563F87B007A007910129C
:10024F000B5E8B528A538954E94A4B60137406250F
:10025F0054F554E43553F553FAA954120A02F555DF
:10026F00D3E555648094B0500302036F7556007543
:10027F005701120CD6120D0A750E00750F017BFF78
:10028F007A08797E120C5EC3E557940AE5566480AE
:10029F0094804020AE56AF577C007D0A120A1BEFA8
:1002AF002430FF120CB6AE56AF577C007D0A120AEF
:1002BF001BED8002E5572430FF120CB67F0D120C98
:1002CF00B67F0A120CB6120D0AE4F50EF50F7B017C
:1002DF007A007900120CEBC3EF9424EE64809480C3
:1002EF0040677561FF7562077563FD7B017A007961
:1002FF0000120B5E8B4F8A508951E94A4B604AC3FB
:10030F00E557940AE556648094804022AE56AF5765
:10031F007C007D0A120A1BEF2430F50CAE56AF5746
:10032F007C007D0A120A1BED2430F50D8009E5577C
:10033F002430F50CE4F50D754C08E4F50AF50BF5D2
:10034F004DF54E1208FE020D0A0557E557700205CE
:10035F0056D39432E5566480948050030202812272
:08036F00054EE54E7002054D3C
:0703770022E54C6408705000
:10037E00C3E54E9405E54D648094804006754C01AE
:10038E000205C8E4F508F509120C58120D0A75613C
:10039E00FF7562087563017B007A007910120B5E9F
:1003AE008B4F8A508951E94A4B600C754C09120DDE
:0F03BE000A120D0A0205C8054EE54E7002054DE4
:0703CD0022E54C64097034C5
:1003D400F508F5097BFF7A087990120C5E120D0A74
:1003E400120D0A7561FF7562077563E47B007A007C
:1003F4007910120B5E8B4F8A508951E94A4B603E4B
:04040400754C102201
:06040800E54C64107036A3
:10040E00F508F5097BFF7A0879A2120C5E120D0A27
:10041E00120D0A7561FF7562077563E47B007A0041
:10042E007910120B5E8B4F8A508951E94A4B60044A
:04043E00754C1122C6
:080442008076E54C6411703670
:10044A00F508F5097BFF7A0879AD120C5E120D0AE0
:10045A00120D0A7561FF7562087563097B007A00DF
:10046A007910120B5E8B4F8A508951E94A4B60040E
:04047A00754C122289
:08047E00803AE54C641270386D
:10048600F508F5097BFF7A0879B8120C5E120D0A99
:10049600120D0A7561FF75620875630B7B007A00A1
:1004A6007910120B5E8B4F8A508951E94A4B6004D2
:0704B600754C1322754C0880
:0A04BD0022E54C641360030205E31E
:1004C700D3E54E9402E54D648094804006754C0850
:1004D7000205C8E4F508F5097BFF7A0879E3120CF1
:1004E7005E120D0A7561FF7562087563167B007AE7
:1004F700007910120B5E8B4F8A508951E94A4B7075
:10050700030205DAE4F508F509120D16E4F555F5C9
:10051700567B017A007900120CEBC3E5569FEE6417
:1005270080F8E555648098501B74002556F5827451
:10053700003555F583E0FF120CB60556E55670D128
:10054700055580CD7F1A120CB6120D13120D0A75C0
:1005570061FF7562077563E47B007A007910120BFF
:100567005E8B528A538954E94A4B605B120003E45D
:10057700F508F5097BFF7A087987120C5EE4F557D1
:10058700F5587B007A00790C120CEBC3E5589FEE07
:100597006480F8E5576480985014740C2558F8E681
:1005A700FF120CB60558E55870D8055780D47F0D53
:1005B700120CB67F0A120CB6120D0A120CD6754C25
:1005C70014E4F54DF54E22120003054EE54E700278
:0B05D700054D22054EE54E701F054D3E
:1005E20022E54CB414177BFF7A0879F0120C5E12E4
:0E05F2000D0A120C58E4F508F509754C0722A5
:100CA1007F44120CB60F120CB67F42120CB67F5560
:050CB100120CB67F47A4
:080CB6003099FDC2998F9922CB
:060C58007BFF7A087959C8
:100C5E008B598A5A895BAB59AA5AA95B120A026050
:100C6E0013055BE55B7002055A14F9120A02FF12B6
:050C7E000CB680E2222B
:030D1300D2AC223D
:030D1600C2AC224A
:100CD6007E017F907D007B017A007900120A51E443
:050CE600F50AF50B22E8
:1008FE007561FF7562087563187B017A00790012C5
:10090E000B5E8B598A5A895BE94A4B7003020A01C6
:10091E007407255BF55BE4355AF55AFAA95B120AA2
:10092E0002640A705B04255BF55BE4355AF55AE404
:10093E00F55CF55DAB59AA5AA95B120A0270030267
:10094E000A01B420028073120A02FFB40D02806AFB
:10095E00EFB40A028064AB59055BE55BAA5A7002DC
:10096E00055A14F9120A02FF7400255DF58274000F
:10097E00355CF583EFF0055DE55D70B8055C80B420
:10098E00AB59AA5AA95B120A02640D70667402254D
:10099E005BF55BE4355AF55AE4F55CF55DAB59AAA7
:1009AE005AA95B120A02604BB42002800D120A0291
:1009BE00FFB40D028004EFB40A0F7400255DF582BA
:1009CE007400355CF583E4F022AB59055BE55BAA58
:1009DE005A7002055A14F9120A02FF7400255DF5C9
:1009EE00827400355CF583EFF0055DE55D70AE0554
:0309FE005C80AA70
:010A010022D2
:100C8300EF1FAA0670011E4A6013E4FCFDC3ED9436
:0D0C93007DEC940050EA0DBD00010C80F0D6
:010CA0002231
:080D0A007FB47E49DEFEDFFC30
:010D120022BE
:03002300020BE0ED
:100BE000C0E0C083C082C0D075D000C000C0063055
:100BF0009859E50F450E7023C2980509E509700262
:100C00000508142410F8A699C3E509943BE5089457
:100C10000040387508007509008030E50F450E600A
:100C20002AC298050BE50BAE0A7002050A142400CF
:100C3000F58274003EF583E599F0C3E50B948FE5EA
:100C40000A94014006750A00750B00D006D000D04A
:080C5000D0D082D083D0E03245
:100CBE00759852758780758920758DFF758BFFD25B
:080CCE00ACD2AFD28EC2AB2202
:10000300120D0A120CA17F3A120CB67B007A00790A
:0F00130010120C5E7F3A120CB6120CA1020D0AED
:100ADE00020D00E493A3F8E493A34003F68001F221
:100AEE0008DFF48029E493A3F85407240CC8C33319
:100AFE00C4540F4420C8834004F456800146F6DFE8
:100B0E00E4800B0102040810204080900600E47E71
:100B1E00019360BCA3FF543F30E509541FFEE493DC
:100B2E00A360010ECF54C025E060A840B8E493A3A3
:100B3E00FAE493A3F8E493A3C8C582C8CAC583CACE
:100B4E00F0A3C8C582C8CAC583CADFE9DEE780BE86
:0107E3000015
:100A0200BB010689828A83E0225002E722BBFE02F2
:090A1200E32289828A83E4932225
:100A1B00C2D5EC30E709B2D5E4C39DFDE49CFCEEF6
:100A2B0030E715B2D5E4C39FFFE49EFE120A7DC3E7
:100A3B00E49DFDE49CFC8003120A7D30D507C3E4E2
:060A4B009FFFE49EFE2265
:100CEB00E4FFFE120A02600C0FEF70010E09E970AF
:050CFB00F20A80EF2267
:100B5E008B5E8A5F8960AB61AA62A963120A02602A
:100B6E0063AB5EAA5FA960120A02605F856164854D
:100B7E0062658563668B678A688969AB64AA65A9B5
:100B8E0066120A02FF6023AB67AA68A969120A02FD
:100B9E006F7017042566F566E43565F565740125F5
:100BAE0069F569E43568F56880D1AB64AA65A96614
:100BBE00120A027002800D74012560F560E4355F43
:100BCE00F55F809DAB5EAA5FA960227B007A0079FB
:020BDE000022F3
:100A5100EF4E6012EF60010EEDBB010B89828A83BC
:100A6100F0A3DFFCDEFA2289F05007F709DFFCA9C9
:0C0A7100F022BBFEFCF309DFFCA9F02220
:100A7D00BC000BBE0029EF8DF084FFADF022E4CC5D
:100A8D00F875F008EF2FFFEE33FEEC33FCEE9DEC26
:100A9D00984005FCEE9DFE0FD5F0E9E4CEFD22ED6C
:100AAD00F8F5F0EE8420D21CFEADF075F008EF2FB6
:100ABD00FFED33FD4007985006D5F0F222C398FDA7
:050ACD000FD5F0EA2244
:00000001FF
