:030000000208797A
:0C087900787FE4F6D8FD7581640208C0A9
:10076A004F4B002B4350494E3A20524541445900C1
:10077A0031003500534D5F50002B434D005348550F
:10078A0054204F4B002E00434F4E4E454354204FAA
:10079A004B003E0053454E44204F4B0041542B43DF
:1007AA0046554E3D300D0A0041542B4346554E3DA9
:1007BA00310D0A0041540D0A0041542B4350494E51
:1007CA003F0D0A0041542B435245473F0D0A004151
:1007DA00542B4353510D0A0041542B43495053485B
:1007EA0055540D0A0041542B43474154543D300D92
:1007FA000A0041542B43504D533F0D0A0041542BDC
:10080A00434D47523D0041542B434D47443D00411F
:10081A00542B435354543D22434D4E4554220D0A02
:10082A000041542B43494943520D0A0041542B437A
:10083A00494653520D0A0041542B434950535441DF
:10084A0052543D22544350222C223139332E313115
:10085A00322E39342E3534222C2239303031220DC1
:0F086A000A0041542B43495053454E440D0A0098
:10058600203C1000000000000000000000000000F9
:100596000000000000000000000000000000000055
:1005A6000000000000000000000000000000000045
:1005B6000000000000000000000000000000000233
:1005C600080000619000000000000000000000002C
:1005D6000000000000000000000000000000000015
:1005E6000000000000000000000000000000000005
:1005F60000000000000000000000000000000000F5
:1006060000000000000000000000000000000000E4
:1006160000000000000000000000000000000000D4
:1006260000000000000000000000000000000000C4
:1006360000000000000000000000000000000000B4
:1006460000000000000000000000000000000000A4
:100656000000000000000000000000000000000094
:100666000000000000000000000000000000000084
:100676000000000000000000000000000000000074
:100686000000000000000000000000000000000064
:100696000000000000000000000000000000000054
:1006A6000000000000000000000000000000000044
:1006B6000000000000000000000000000000000034
:1006C6000000000000000000000000000000000024
:1006D6000000000000000000000000000000000014
:1006E6000000000000000000000000000000000004
:1006F60000000000000000000000000000000000F4
:1007060000000000000000000000000000000000E3
:1007160000000000000000000000000000000000D3
:1007260000000000000000000000000000000000C3
:1007360000000000000000000000000000000000B3
:1007460000000000000000000000000000000000A3
:1007560000000000000000020A0000020E00000275
:030766000C000084
:0A0B0000E4F580F54C12002680FB9E
:10002600E54C7006120AD60200A8E54C6401703A47
:10003600120AAC120A8A7BFF7A0779A6120A657F32
:10004600647E00120A8E755CFF755D07755E6A7BBD
:10005600007A0079101209058B4F8A508951E94AB6
:090066004B7003020585754C0284
:07006F0022E54C640270362B
:10007600120AAC120A8A7BFF7A0779B2120A651253
:100086000A8A755CFF755D07755E6A7B007A007982
:10009600101209058B4F8A508951E94A4B700302A9
:0500A6000585754C0307
:0700AB0022E54C64037039EB
:1000B200120AAC120A8A7BFF7A0779BE120A65120B
:1000C2000A8A755CFF755D07755E6A7B007A007946
:1000D200101209058B4F8A508951E94A4B7003026D
:0800E2000585120AAC754C04FF
:0700EA0022E54C6404704D97
:1000F100120AAC120A8AC3E54E9414E54D64809449
:1001010080400280517BFF7A0779C3120A65120A87
:100111008A755CFF755D07755E6D7B007A007910ED
:100121001209058B4F8A508951E94A4B6006754C7B
:0C0131000502048C054EE54E7002054DE1
:07013D0022E54C640570741B
:10014400120AAC120A8AD3E54E9432E54D648094C7
:10015400804006754C0102048C7BFF7A0779CE122D
:100164000A65120A8A755CFF755D07755E7A7B0005
:100174007A0079101209058B4F8A508951E94A4B4C
:100184006006754C0602048C755CFF755D07755E30
:100194007C7B007A0079101209058B4F8A508951B3
:1001A400E94A4B6006754C0602048C054EE54E7018
:0301B40002054DF4
:0701B70022E54C6406704EC6
:1001BE00120AAC120A8AD3E54E9432E54D6480944D
:1001CE00804006754C0102048C7BFF7A0779D912A8
:1001DE000A65120A8A755CFF755D07755E6A7B009B
:1001EE007A0079101209058B4F8A508951E94A4BD2
:0D01FE00600302036B054EE54E7002054DD7
:0A020B0022E54C640760030203368D
:10021500120AAC120A8A758080C3E54E9432E54D08
:10022500648094804007754C03E402031A7BFF7ACF
:100235000779FC120A65120A8A755CFF755D0775F8
:100245005E7E7B007A0079101209058B528A5389EC
:1002550054E94A4B602B74062554F554E43553F59F
:10026500530554E554AA537002055314F91209F9BC
:10027500F50CAA53A9541209F9F50DB42C03E4F5AC
:100285000DE50CD39430500302032AE50CD39439C1
:100295004003020332750E00750F01E4F50AF50BF4
:1002A5007BFF7A087907120A65E4F555F5567B0058
:1002B5007A00790C120AEBC3E5569FEE6480F8E5E7
:1002C500556480985014740C2556F8E6FF120018F2
:1002D5000556E55670D8055580D47F0D1200187F58
:1002E5000A1200187F327E00120A8EE4F50EF50F11
:1002F500755CFF755D07755E837B017A0079001279
:1003050009058B4F8A508951E94A4B600EE4F50A7D
:10031500F50B754C09F54DF54E8012054EE54E7001
:100325000C054D8008054EE54E7002054DE4F5803F
:0703350022E54C640870375B
:10033C00120AAC120A8A7BFF7A0779E2120A65125A
:10034C000A8A755CFF755D07755E877B007A00799C
:10035C00101209058B4F8A508951E94A4B6004757C
:06036C004C0722754C0154
:0703720022E54C640970371D
:10037900120AAC120A8A7BFF7A087919120A657F78
:10038900327E00120A8E755CFF755D07755E6A7BA9
:10039900007A0079101209058B4F8A508951E94A70
:0703A9004B6041754C10226E
:0603B000E54C6410703AF8
:1003B600120AAC120A8A7BFF7A08792B120A657F29
:1003C600327E00120A8E755CFF755D07755E6A7B6C
:1003D600007A0079101209058B4F8A508951E94A33
:0703E6004B6004754C11226D
:0903ED00020469E54C641170364C
:1003F600120AAC120A8A7BFF7A087936120A65124B
:100406000A8A755CFF755D07755E8F7B007A0079D9
:10041600101209058B4F8A508951E94A4B70030225
:050426000585754C1274
:07042B0022E54C6412703B56
:10043200120AAC120A8A7BFF7A087941120A657F96
:10044200327E00120A8E755CFF755D07755E917BC8
:10045200007A0079101209058B4F8A508951E94AB6
:0A0462004B6004754C1322754C0822
:0A046C0022E54C64136003020585CD
:10047600120AAC120A8AD3E54E9402E54D648094C2
:10048600804009754C08E4F54DF54E227BFF7A084D
:10049600796C120A65120A8A755CFF755D07755ECE
:1004A6009C7B007A0079101209058B4F8A5089517E
:1004B600E94A4B700302057D120AAC120A8AE4F57A
:1004C60055F5567B017A007900120AEBC3E5569F73
:1004D600EE6480F8E555648098501B74002556F547
:1004E6008274003555F583E0FF1200180556E5566F
:1004F60070D1055580CD7F1A120018120A8A755CD4
:10050600FF755D07755E9E7B007A007910120905FE
:100516008B528A538954E94A4B60517BFF7A08799A
:1005260010120A65E4F557F5587B007A00790C122B
:100536000AEBC3E5589FEE6480F8E557648098504F
:1005460014740C2558F8E6FF1200180558E5587083
:10055600D8055780D47F0D1200187F0A1200181292
:100566000AC1754C08E4F54DF54E8008054EE54E7A
:0F0576007002054D020A3E054EE54E7002054D1E
:010585002253
:100003007F441200180F1200187F421200187F5508
:050013001200187F47F8
:080018003099FDC2998F992275
:100A65008B598A5A895BAB59AA5AA95B1209F96055
:100A750013055BE55B7002055A14F91209F9FF12BB
:050A8500001880E222D0
:100AAC007E007F3C7D007B007A007910120A12E4F4
:050ABC00F508F5092218
:100AC1007E017F907D007B017A007900120A12E499
:050AD100F50AF50B22FF
:040A8A007F1E7E004D
:100A8E00EF1FAA0670011E4A6013E4FCFDC3ED942D
:0D0A9E007DEC940050EA0DBD00010C80F0CD
:010AAB002228
:0300230002098748
:10098700C0E0C083C082C0D075D000C000C00630B0
:100997009853E50F450E7023C2980509E5097002C3
:1009A7000508142410F8A699C3E509943BE50894B3
:1009B700004032750800750900802AC298050BE5CA
:1009C7000BAE0A7002050A142400F58274003EF586
:1009D70083E599F0C3E50B948FE50A94014006750A
:1009E7000A00750B00D006D000D0D0D082D083D0BB
:0209F700E032EC
:100AD600759852758780758920758DFDD28ED2AC3A
:050AE600D2AFD28E2208
:100A3E007F647E00120A8E1200037F3A1200187B2A
:100A4E00007A007910120A657F3A1200181200031C
:070A5E007F647E00020A8E96
:10088500020B00E493A3F8E493A34003F68001F27E
:1008950008DFF48029E493A3F85407240CC8C33374
:1008A500C4540F4420C8834004F456800146F6DF43
:1008B500E4800B0102040810204080900586E47E48
:1008C500019360BCA3FF543F30E509541FFEE49338
:1008D500A360010ECF54C025E060A840B8E493A3FF
:1008E500FAE493A3F8E493A3C8C582C8CAC583CA2A
:1008F500F0A3C8C582C8CAC583CADFE9DEE780BEE2
:01076900008F
:1009F900BB010689828A83E0225002E722BBFE02FC
:090A0900E32289828A83E493222E
:100AEB00E4FFFE1209F9600C0FEF70010E09E970BB
:050AFB00F20A80EF2269
:100905008B598A5A895BAB5CAA5DA95E1209F960AD
:1009150063AB59AA5AA95B1209F9605F855C5F85CB
:100925005D60855E618B628A638964AB5FAA60A93D
:10093500611209F9FF6023AB62AA63A9641209F980
:100945006F7017042561F561E43560F56074012564
:1009550064F564E43563F56380D1AB5FAA60A96192
:100965001209F97002800D7401255BF55BE4355AB7
:10097500F55A809DAB59AA5AA95B227B007A00796A
:0209850000224E
:100A1200EF4E6012EF60010EEDBB010B89828A83FB
:100A2200F0A3DFFCDEFA2289F05007F709DFFCA908
:0C0A3200F022BBFEFCF309DFFCA9F0225F
:00000001FF
