:03000000020604F1
:0C060400787FE4F6D8FD75812402064BD7
:100485004F4B00434D5400434F4E4E454354204F70
:100495004B003E0053454E44204F4B0053485554A6
:1004A500204F4B0041540041542B434E4D493D31A3
:1004B5002C322C302C302C300041542B4350494EDB
:1004C5003F0041542B4353510041542B4352454760
:1004D5003F0041542B43474154543F0041542B4363
:1004E5005354543D22434D4E4554220041542B4311
:1004F500494943520041542B434946535200415404
:100505002B43495053544152543D22544350222CBD
:10051500223139332E3131322E39342E3534222CD5
:100525002239303031220041542B43495053454E36
:10053500440041542B434950434C4F5345004154CB
:090545002B434950534855540062
:1000260061900000000000000000000000000000D9
:1000360000000000000000000000000000000000BA
:1000460000000000000000000000000000000000AA
:10005600000000000000000000000000000000009A
:10006600000000000000000000000000000000008A
:10007600000000000000000000000000000000007A
:10008600000000000000000000000000000000006A
:10009600000000000000000000000000000000005A
:1000A600000000000000000000000000000000004A
:1000B600000000000000000000000000000000003A
:1000C600000000000000000000000000000000002A
:1000D600000000000000000000000000000000001A
:1000E600000000000000000000000000000000000A
:1000F60000000000000000000000000000000000FA
:1001060000000000000000000000000000000000E9
:1001160000000000000000000000000000000000D9
:1001260000000000000000000000000000000000C9
:1001360000000000000000000000000000000000B9
:1001460000000000000000000000000000000000A9
:100156000000000000000000000000000000000099
:100166000000000000000000000000000000000089
:100176000000000000000000000000000000000079
:100186000000000000000000000000000000000069
:100196000000000000000000000000000000000059
:1001A6000000000000000000000000000000000049
:1001B60000000000619001900000000000000000B7
:1001C6000000000000000000000000000000000029
:1001D6000000000000000000000000000000000019
:1001E6000000000000000000000000000000000009
:1001F60000000000000000000000000000000000F9
:1002060000000000000000000000000000000000E8
:1002160000000000000000000000000000000000D8
:1002260000000000000000000000000000000000C8
:1002360000000000000000000000000000000000B8
:1002460000000000000000000000000000000000A8
:100256000000000000000000000000000000000098
:100266000000000000000000000000000000000088
:100276000000000000000000000000000000000078
:100286000000000000000000000000000000000068
:100296000000000000000000000000000000000058
:1002A6000000000000000000000000000000000048
:1002B6000000000000000000000000000000000038
:1002C6000000000000000000000000000000000028
:1002D6000000000000000000000000000000000018
:1002E6000000000000000000000000000000000008
:1002F60000000000000000000000000000000000F8
:1003060000000000000000000000000000000000E7
:1003160000000000000000000000000000000000D7
:1003260000000000000000000000000000000000C7
:1003360000000000000000000000000000000000B7
:10034600000000000000000002210000021F000063
:10000300120B5775800175997312083C120B6D1210
:0F0013000883120B6D1207127F65120B9D80FE82
:060B97003CF583E493FF2E
:080B9D003099FDC2998F9922E5
:1009BA00E4F50EF50F7B017A007900120B82C3E58C
:1009CA000F9FEE6480F8E50E648098501B74002532
:1009DA000FF5827400350EF583E0FF120B9D050FAB
:0809EA00E50F70D1050E80CD70
:0109F20022E2
:1009F300E4F523F5247B017A017990120B82C3E598
:100A0300249FEE6480F8E523648098501B7490253E
:100A130024F58274013523F583E0FF120B9D052431
:080A2300E52470D1052380CD0C
:010A2B0022A8
:100B6D007E017F907D007B017A007900120440E4C4
:050B7D00F51FF5202228
:10083C00E4FDFC74A92DF5827404120B970DBD0018
:10084C00010CED64024C70EB7F0D120B9D7F0A12B4
:10085C000B9D7F017E00120AE17516FF751704755A
:10086C0018857B017A0079001206908B088A098919
:07087C000AE94A4B60BA22B1
:10088300E4FDFC74AC2DF5827404120B970DBD00CE
:10089300010CED64114C70EB7F0D120B9D7F0A125E
:1008A3000B9D7F017E00120AE17516FF7517047513
:1008B30018857B017A0079001206908B088A0989D2
:0708C3000AE94A4B60BA226A
:100712007580027F57120B9D7F41120B9D7F4912FC
:100722000B9D7F54120B9D7F0D120B9D7F0A120BA6
:100732009D7E00120AE17516FF7517047518887BF5
:10074200017A0079001206908B088A09890AE94A1F
:100752004B60237580A57F53120B9D120B9D7890E1
:100762007C017D017B017A007900120423120B6D5A
:0B077200120A2C75800F120B6D809591
:100A2C001208CA120B6D120906120B6D1209421232
:100A3C000B6D12097E120B6D120AFA120B6D120B52
:100A4C0019120B6D120B38120B6D12077D12054E1D
:090A5C00120A65120A9C020B6DDE
:1008CA00E4FDFC74BE2DF5827404120B970DBD0075
:1008DA00010CED64084C70EB120AD37516FF7517FC
:1008EA00047518857B017A0079001206908B0B8AB1
:0B08FA000C890DE94A4B60C8758004B2
:0109050022CF
:10090600E4FDFC74C72DF5827404120B970DBD002F
:10091600010CED64064C70EB120AD37516FF7517C1
:10092600047518857B017A0079001206908B0B8A74
:0B0936000C890DE94A4B60C875800871
:010941002293
:10094200E4FDFC74CE2DF5827404120B970DBD00EC
:10095200010CED64084C70EB120AD37516FF751783
:10096200047518857B017A0079001206908B0B8A38
:0B0972000C890DE94A4B60C87580102D
:01097D002257
:10097E00E4FDFC74D72DF5827404120B970DBD00A7
:10098E00010CED64094C70EB120AD37516FF751746
:10099E00047518857B017A0079001206908B0B8AFC
:0B09AE000C890DE94A4B60C8758020E1
:0109B900221B
:100AFA00E4FDFC74E12DF5827404120B970DBD0020
:0E0B0A00010CED640F4C70EB120AD3758040A5
:010B180022BA
:100B1900E4FDFC74F12DF5827404120B970DBD00F0
:0E0B2900010CED64084C70EB120AD37580804D
:010B3700229B
:100B3800E4FDFC74FA2DF5827404120B970DBD00C8
:0E0B4800010CED64084C70EB120AD3758003AB
:010B5600227C
:10077D00E4FDFC74032DF5827405120B970DBD007D
:10078D00010CED64284C70EB7F0D120B9D7F0A124E
:10079D000B9D7E00120AE175800C7F30120B9D7F40
:1007AD000D120B9D7F0A120B9D1209BA7F0D120BB4
:1007BD009D7F0A120B9D7F30120B9D7516FF7517CD
:1007CD000475188C7B017A0079001206908B0B8AC8
:0907DD000C890DE94A4B609822D9
:10054E00E4FDFC742C2DF5827405120B970DBD0085
:10055E00010CED640A4C70EB120AD37580307516DF
:10056E00FF7517047518977B017A007900120690B3
:10057E008B0B8A0C890DE94A4B60C57511007512FB
:10058E000D7B017A017990120B82C3E5129FEE6406
:10059E0080F8E511648098501B74902512F58274D2
:1005AE00013511F583E0FF120B9D0512E51270D196
:1005BE00051180CD7F0D120B9D7F0A120B9D7F1AA8
:1005CE00120B9D7580C07516FF7517047518997BF3
:1005DE00017A0079001206908B0E8A0F8910E94A73
:1005EE004B60987580E07E717F007D007B017A0103
:0505FE00799012044099
:0106030022D4
:100A6500E4FDFC74372DF5827405120B970DBD005E
:100A7500010CED640B4C70EB120AD37580077516EB
:100A8500FF7517047518857B017A007900120690A9
:060A95008B0B8A0C890D99
:010A9B002238
:100A9C00E4FDFC74432DF5827405120B970DBD001B
:100AAC00010CED640A4C70EB120AD37516FF751726
:100ABC00047518A17B017A0079001206908B0B8AC1
:060ACC000C890D75803855
:010AD2002201
:030023000207E6EB
:1007E600C0E0C083C082C0D075D000C00630983B40
:1007F600C2980520E520AE1F7002051F142400F5DF
:100806008274003EF583E599F0D3E5209522E51F35
:1008160095214006851F21852022D3E5209490E569
:100826001F94014006751F00752000D006D0D0D059
:0608360082D083D0E03205
:100B5700759850758920758780758DF3758BF3D2DD
:060B6700ACD2AFD28E22D9
:0E0AD3007F0D120B9D7F0A120B9D7F057E008A
:100AE100D3EF9400EE9400400F7D267C82DCFEDD86
:080AF100FAEF1F70EB1E80E814
:010AF90022DA
:10061000020003E493A3F8E493A34003F68001F2FD
:1006200008DFF48029E493A3F85407240CC8C333EB
:10063000C4540F4420C8834004F456800146F6DFBA
:10064000E4800B0102040810204080900026E47E24
:10065000019360BCA3FF543F30E509541FFEE493AF
:10066000A360010ECF54C025E060A840B8E493A376
:10067000FAE493A3F8E493A3C8C582C8CAC583CAA1
:10068000F0A3C8C582C8CAC583CADFE9DEE780BE59
:0103560000A6
:10035700E709F60870FA8046E709F20870FA803E66
:1003670088828C83E709F0A370FA807EE309F60898
:1003770070FA8076E309F20870FA806E88828C83BF
:10038700E309F0A370FA806289828A83E0A3F60802
:1003970070FA805689828A83E0A3F20870FA804A4D
:1003A70080D280FA80C680D4806580F28031801048
:1003B70080A680EA809A80A880DA80E280CA8031AD
:1003C70089828A83ECFAE493A3C8C582C8CCC58323
:1003D700CCF0A3C8C582C8CCC583CC70E9800D8991
:1003E700828A83E493A3F60870F9ECFAA9F0EDFB8F
:1003F7002289828A83ECFAE0A3C8C582C8CCC58368
:10040700CCF0A3C8C582C8CCC583CC70EA80DD898F
:10041700828A83E493A3F20870F980CE88F0ED24F2
:1004270002B4040050C4F582EB2402B4040050BAAD
:0904370023234582239003A773DF
:100B8200E4FFFE12046C600C0FEF70010E09E970B5
:050B9200F20A80EF22D1
:100690008B138A148915AB16AA17A91812046C605B
:1006A00063AB13AA14A91512046C605F8516198533
:1006B000171A85181B8B1C8A1D891EAB19AA1AA92B
:1006C0001B12046CFF6023AB1CAA1DA91E12046C34
:1006D0006F701704251BF51BE4351AF51A740125F4
:1006E0001EF51EE4351DF51D80D1AB19AA1AA91BF4
:1006F00012046C7002800D74012515F515E4351493
:10070000F514809DAB13AA14A915227B007A0079F9
:020710000022C5
:10044000EF4E6012EF60010EEDBB010B89828A83D3
:10045000F0A3DFFCDEFA2289F05007F709DFFCA9E0
:0C046000F022BBFEFCF309DFFCA9F02237
:10046C00BB010689828A83E0225002E722BBFE028E
:09047C00E32289828A83E49322C1
:00000001FF
