:03000000020609EC
:0C060900787FE4F6D8FD758126020650CB
:100485004F4B00434D5400434F4E4E454354204F70
:100495004B003E0053454E44204F4B0053485554A6
:1004A500204F4B0041540041542B434E4D493D32A2
:1004B5002C322C302C302C300041542B4350494EDB
:1004C5003F0041542B4353510041542B4352454760
:1004D5003F0041542B43474154543F0041542B4363
:1004E5005354543D22434D4E4554220041542B4311
:1004F500494943520041542B434946535200415404
:100505002B43495053544152543D22544350222CBD
:10051500223139332E3131322E39342E3534222CD5
:100525002239303031220041542B43495053454E36
:10053500440041542B434950434C4F5345004154CB
:090545002B434950534855540062
:1000260061900000000000000000000000000000D9
:1000360000000000000000000000000000000000BA
:1000460000000000000000000000000000000000AA
:10005600000000000000000000000000000000009A
:10006600000000000000000000000000000000008A
:10007600000000000000000000000000000000007A
:10008600000000000000000000000000000000006A
:10009600000000000000000000000000000000005A
:1000A600000000000000000000000000000000004A
:1000B600000000000000000000000000000000003A
:1000C600000000000000000000000000000000002A
:1000D600000000000000000000000000000000001A
:1000E600000000000000000000000000000000000A
:1000F60000000000000000000000000000000000FA
:1001060000000000000000000000000000000000E9
:1001160000000000000000000000000000000000D9
:1001260000000000000000000000000000000000C9
:1001360000000000000000000000000000000000B9
:1001460000000000000000000000000000000000A9
:100156000000000000000000000000000000000099
:100166000000000000000000000000000000000089
:100176000000000000000000000000000000000079
:100186000000000000000000000000000000000069
:100196000000000000000000000000000000000059
:1001A6000000000000000000000000000000000049
:1001B60000000000619001900000000000000000B7
:1001C6000000000000000000000000000000000029
:1001D6000000000000000000000000000000000019
:1001E6000000000000000000000000000000000009
:1001F60000000000000000000000000000000000F9
:1002060000000000000000000000000000000000E8
:1002160000000000000000000000000000000000D8
:1002260000000000000000000000000000000000C8
:1002360000000000000000000000000000000000B8
:1002460000000000000000000000000000000000A8
:100256000000000000000000000000000000000098
:100266000000000000000000000000000000000088
:100276000000000000000000000000000000000078
:100286000000000000000000000000000000000068
:100296000000000000000000000000000000000058
:1002A6000000000000000000000000000000000048
:1002B6000000000000000000000000000000000038
:1002C6000000000000000000000000000000000028
:1002D6000000000000000000000000000000000018
:1002E6000000000000000000000000000000000008
:1002F60000000000000000000000000000000000F8
:1003060000000000000000000000000000000000E7
:1003160000000000000000000000000000000000D7
:1003260000000000000000000000000000000000C7
:1003360000000000000000000000000000000000B7
:10034600000000000000000002210000021F000063
:100B1400120B30758001120818120B4612085F126E
:0C0B24000B461207177F65120B7680FE4F
:060B70003CF583E493FF55
:080B76003099FDC2998F99220C
:10099600E4F523F5247B017A007900120B5BC3E5AD
:1009A600249FEE6480F8E523648098501B7400252C
:1009B60024F58274003523F583E0FF120B760524B7
:0809C600E52470D1052380CD6A
:0109CE002206
:1009CF00E4F525F5267B017A017990120B5BC3E5DF
:1009DF00269FEE6480F8E525648098501B7490255F
:1009EF0026F58274013525F583E0FF120B76052677
:0809FF00E52670D1052580CD2D
:010A070022CC
:100B46007E017F907D007B017A007900120440E4EB
:050B5600F51FF520224F
:10081800E4FDFC74A92DF5827404120B700DBD0063
:10082800010CED64024C70EB7F0D120B767F0A12FF
:100838000B767F017E00120ABD7516FF75170475C9
:1008480018857B017A0079001206958B088A098938
:070858000AE94A4B60BA22D5
:10085F00E4FDFC74AC2DF5827404120B700DBD0019
:10086F00010CED64114C70EB7F0D120B767F0A12A9
:10087F000B767F017E00120ABD7516FF7517047582
:10088F0018857B017A0079001206958B088A0989F1
:07089F000AE94A4B60BA228E
:100717007580027F57120B767F41120B767F491245
:100727000B767F54120B767F0D120B767F0A120B16
:10073700767E00120ABD7516FF7517047518887B3B
:10074700017A0079001206958B088A09890AE94A15
:100757004B601B7580A578907C017D017B017A0039
:100767007900120423120B46120A0875800F120B28
:0307770046809D1C
:100A08001208A6120B461208E2120B4612091E1211
:100A18000B4612095A120B46120003120B46120A11
:100A2800D6120B46120AF5120B461207D012054EC3
:090A3800120A41120A78020B4671
:1008A600E4FDFC74BE2DF5827404120B700DBD00C0
:1008B600010CED64084C70EB120AAF7516FF751744
:1008C600047518857B017A0079001206958B0B8AD0
:0B08D6000C890DE94A4B60C8758004D6
:0108E10022F4
:1008E200E4FDFC74C72DF5827404120B700DBD007B
:1008F200010CED64064C70EB120AAF7516FF75170A
:10090200047518857B017A0079001206958B0B8A93
:0B0912000C890DE94A4B60C875800895
:01091D0022B7
:10091E00E4FDFC74CE2DF5827404120B700DBD0037
:10092E00010CED64084C70EB120AAF7516FF7517CB
:10093E00047518857B017A0079001206958B0B8A57
:0B094E000C890DE94A4B60C875801051
:01095900227B
:10095A00E4FDFC74D72DF5827404120B700DBD00F2
:10096A00010CED64094C70EB120AAF7516FF75178E
:10097A00047518857B017A0079001206958B0B8A1B
:0B098A000C890DE94A4B60C875802005
:01099500223F
:10000300E4FDFC74E12DF5827404120B700DBD0048
:0E001300010CED640F4C70EB120AAF758040CB
:0100210022BC
:100AD600E4FDFC74F12DF5827404120B700DBD005B
:0E0AE600010CED64084C70EB120AAF758080B5
:010AF40022DF
:100AF500E4FDFC74FA2DF5827404120B700DBD0033
:0E0B0500010CED64084C70EB120AAF75800312
:010B130022BF
:1007D000E4FDFC74032DF5827405120B700DBD0051
:1007E000010CED64284C70EB7F0D120B767F0A1222
:1007F0000B767E00120ABD75800C7516FF75170406
:1008000075188C7B017A0079001206958B0B8A0C87
:08081000890DE94A4B60B92291
:10054E00E4FDFC742C2DF5827405120B700DBD00AC
:10055E00010CED640A4C70EB120AAF758030751603
:10056E00FF7517047518977B017A007900120695AE
:10057E008B0B8A0C890DE94A4B60C57511007512FB
:10058E00107B017A017990120B5BC3E5129FEE642A
:10059E0080F8E511648098501B74902512F58274D2
:1005AE00013511F583E0FF120B760512E51270D1BD
:1005BE00051180CD7F0D120B767F0A120B767F1AF6
:1005CE00120B767F3C120B767580C07516FF751771
:1005DE00047518997B017A0079001206958B0E8AA4
:1005EE000F8910E94A4B60937580E07E017F907D04
:0A05FE00007B017A0179901204409D
:0106080022CF
:100A4100E4FDFC74372DF5827405120B700DBD00A9
:100A5100010CED640B4C70EB120AAF758007751633
:100A6100FF7517047518857B017A007900120695C8
:060A71008B0B8A0C890DBD
:010A7700225C
:100A7800E4FDFC74432DF5827405120B700DBD0066
:100A8800010CED640A4C70EB120AAF7516FF75176E
:100A9800047518A17B017A0079001206958B0B8AE0
:060AA8000C890D75803879
:010AAE002225
:0300230002077A57
:10077A00C0E0C083C082C0D075D000C00630983BAC
:10078A00C2980520E520AE1F7002051F142400F54B
:10079A008274003EF583E599F0D3E5209522E51FA2
:1007AA0095214006851F21852022D3E5209490E5D6
:1007BA001F94014006751F00752000D006D0D0D0C6
:0607CA0082D083D0E03272
:100B3000759852758920758780758DFD758BFDD2EE
:060B4000ACD2AFD28E2200
:0E0AAF007F0D120B767F0A120B767F057E00FC
:100ABD00D3EF9400EE9400400F7D267C82DCFEDDAA
:080ACD00FAEF1F70EB1E80E838
:010AD50022FE
:10061500020B14E493A3F8E493A34003F68001F2DC
:1006250008DFF48029E493A3F85407240CC8C333E6
:10063500C4540F4420C8834004F456800146F6DFB5
:10064500E4800B0102040810204080900026E47E1F
:10065500019360BCA3FF543F30E509541FFEE493AA
:10066500A360010ECF54C025E060A840B8E493A371
:10067500FAE493A3F8E493A3C8C582C8CAC583CA9C
:10068500F0A3C8C582C8CAC583CADFE9DEE780BE54
:0103560000A6
:10035700E709F60870FA8046E709F20870FA803E66
:1003670088828C83E709F0A370FA807EE309F60898
:1003770070FA8076E309F20870FA806E88828C83BF
:10038700E309F0A370FA806289828A83E0A3F60802
:1003970070FA805689828A83E0A3F20870FA804A4D
:1003A70080D280FA80C680D4806580F28031801048
:1003B70080A680EA809A80A880DA80E280CA8031AD
:1003C70089828A83ECFAE493A3C8C582C8CCC58323
:1003D700CCF0A3C8C582C8CCC583CC70E9800D8991
:1003E700828A83E493A3F60870F9ECFAA9F0EDFB8F
:1003F7002289828A83ECFAE0A3C8C582C8CCC58368
:10040700CCF0A3C8C582C8CCC583CC70EA80DD898F
:10041700828A83E493A3F20870F980CE88F0ED24F2
:1004270002B4040050C4F582EB2402B4040050BAAD
:0904370023234582239003A773DF
:100B5B00E4FFFE12046C600C0FEF70010E09E970DC
:050B6B00F20A80EF22F8
:100695008B138A148915AB16AA17A91812046C6056
:1006A50063AB13AA14A91512046C605F851619852E
:1006B500171A85181B8B1C8A1D891EAB19AA1AA926
:1006C5001B12046CFF6023AB1CAA1DA91E12046C2F
:1006D5006F701704251BF51BE4351AF51A740125EF
:1006E5001EF51EE4351DF51D80D1AB19AA1AA91BEF
:1006F50012046C7002800D74012515F515E435148E
:10070500F514809DAB13AA14A915227B007A0079F4
:020715000022C0
:10044000EF4E6012EF60010EEDBB010B89828A83D3
:10045000F0A3DFFCDEFA2289F05007F709DFFCA9E0
:0C046000F022BBFEFCF309DFFCA9F02237
:10046C00BB010689828A83E0225002E722BBFE028E
:09047C00E32289828A83E49322C1
:00000001FF
