:03000000020600F5
:0C060000787FE4F6D8FD758126020647DD
:100485004F4B00434D5400434F4E4E454354204F70
:100495004B003E0053454E44204F4B0053485554A6
:1004A500204F4B0041540041542B4950523D3139A6
:1004B5003230300041542B434E4D493D322C322CC5
:1004C500302C302C300041542B4350494E3F0041D5
:1004D500542B4353510041542B435245473F004150
:1004E500542B43474154543F0041542B43535454D8
:1004F5003D22434D4E4554220041542B4349494327
:10050500520041542B43494653520041542B434911
:100515005053544152543D22544350222C223139D8
:10052500332E3131322E39342E3534222C223930C6
:100535003031220041542B43495053454E4400412C
:10054500542B434950434C4F53450041542B434989
:060555005053485554000C
:1000260061900000000000000000000000000000D9
:1000360000000000000000000000000000000000BA
:1000460000000000000000000000000000000000AA
:10005600000000000000000000000000000000009A
:10006600000000000000000000000000000000008A
:10007600000000000000000000000000000000007A
:10008600000000000000000000000000000000006A
:10009600000000000000000000000000000000005A
:1000A600000000000000000000000000000000004A
:1000B600000000000000000000000000000000003A
:1000C600000000000000000000000000000000002A
:1000D600000000000000000000000000000000001A
:1000E600000000000000000000000000000000000A
:1000F60000000000000000000000000000000000FA
:1001060000000000000000000000000000000000E9
:1001160000000000000000000000000000000000D9
:1001260000000000000000000000000000000000C9
:1001360000000000000000000000000000000000B9
:1001460000000000000000000000000000000000A9
:100156000000000000000000000000000000000099
:100166000000000000000000000000000000000089
:100176000000000000000000000000000000000079
:100186000000000000000000000000000000000069
:100196000000000000000000000000000000000059
:1001A6000000000000000000000000000000000049
:1001B60000000000619001900000000000000000B7
:1001C6000000000000000000000000000000000029
:1001D6000000000000000000000000000000000019
:1001E6000000000000000000000000000000000009
:1001F60000000000000000000000000000000000F9
:1002060000000000000000000000000000000000E8
:1002160000000000000000000000000000000000D8
:1002260000000000000000000000000000000000C8
:1002360000000000000000000000000000000000B8
:1002460000000000000000000000000000000000A8
:100256000000000000000000000000000000000098
:100266000000000000000000000000000000000088
:100276000000000000000000000000000000000078
:100286000000000000000000000000000000000068
:100296000000000000000000000000000000000058
:1002A6000000000000000000000000000000000048
:1002B6000000000000000000000000000000000038
:1002C6000000000000000000000000000000000028
:1002D6000000000000000000000000000000000018
:1002E6000000000000000000000000000000000008
:1002F60000000000000000000000000000000000F8
:1003060000000000000000000000000000000000E7
:1003160000000000000000000000000000000000D7
:1003260000000000000000000000000000000000C7
:1003360000000000000000000000000000000000B7
:10034600000000000000000002210000021F000063
:05001E0012000380FE4A
:070B2E007F0D120B357F0A59
:080B35003099FDC2998F99224D
:100A80008B138A148915AB13AA14A9151203576086
:100A9000130515E5157002051414F9120357FF121A
:050AA0000B3580E2228D
:10081000E4F523F5247B017A007900120AE9C3E5A7
:10082000249FEE6480F8E523648098501B740025B3
:1008300024F58274003523F583E0FF120B3505247F
:08084000E52470D1052380CDF1
:01084800228D
:10084900E4F525F5267B017A017990120AE9C3E5D9
:10085900269FEE6480F8E525648098501B749025E6
:1008690026F58274013525F583E0FF120B3505263F
:08087900E52670D1052580CDB4
:010881002254
:100AD4007E017F907D007B017A007900120459E445
:050AE400F51FF52022C2
:10000300120ABE7580011208B6120AD41208E7124A
:0B0013000AD4120918120AD402070ECA
:1008B6007BFF7A0479A9120A80120B2E7F027E0032
:1008C600120A3A7516FF7517047518857B017A00AA
:1008D600790012068C8B088A09890AE94A4B60D08E
:0108E60022EF
:1008E7007BFF7A0479AC120A80120B2E7F027E00FE
:1008F700120A3A7516FF7517047518857B017A0079
:10090700790012068C8B088A09890AE94A4B60D05C
:0109170022BD
:100918007BFF7A0479B9120A80120B2E7F027E00BF
:10092800120A3A7516FF7517047518857B017A0047
:10093800790012068C8B088A09890AE94A4B60D02B
:01094800228C
:10070E007580027F57120B357F41120B357F4912D0
:10071E000B357F54120B35120A2C7516FF75170404
:10072E007518887B017A00790012068C8B088A096D
:10073E00890AE94A4B601B7580A578907C017D0182
:10074E007B017A00790012043C120AD41207BB75A1
:07075E00800F120AD480A9EC
:1007BB007F3E120B35E5222430FF120B357F3C12A6
:1007CB000B351209497F057E00120A3A120978127D
:1007DB000AD41209A5120AD41209D2120AD4120988
:1007EB00FF120AD4120AFE120AD4120B0E120AD4EA
:1007FB00120B1E120AD412088212055B120949123F
:05080B000A58020AD4A6
:100978007BFF7A0479CB120A80120A2C7516FF7550
:1009880017047518857B017A00790012068C8B0B89
:0C0998008A0C890DE94A4B60D775800479
:0109A4002230
:1009A5007BFF7A0479D4120A80120A2C7516FF751A
:1009B50017047518857B017A00790012068C8B0B5C
:0C09C5008A0C890DE94A4B60D775800848
:0109D1002203
:1009D2007BFF7A0479DB120A80120A2C7516FF75E6
:1009E20017047518857B017A00790012068C8B0B2F
:0C09F2008A0C890DE94A4B60D775801013
:0109FE0022D6
:1009FF007BFF7A0479E4120A80120A2C7516FF75B0
:100A0F0017047518857B017A00790012068C8B0B01
:0C0A1F008A0C890DE94A4B60D7758020D5
:010A2B0022A8
:100AFE007BFF7A0479EE120A80120A2C758040224E
:100B0E007BFF7A0479FE120A80120A2C75808022ED
:100B1E007BFF7A057907120A80120A2C7580032250
:100882007BFF7A057910120A80120B2E7F647E009C
:10089200120A3A75800C7516FF75170475188C7B51
:1008A200017A00790012068C8B0B8A0C890DE94AB9
:0408B2004B60CD22A8
:10055B007BFF7A057939120A80120A2C7580307567
:10056B0016FF7517047518977B017A007900120630
:10057B008C8B0B8A0C890DE94A4B60D47511007575
:10058B00120E7B017A017990120AE9C3E5129FEEF4
:10059B006480F8E511648098501B74902512F582E5
:1005AB0074013511F583E0FF120B350512E512705E
:1005BB00D1051180CD120B2E7F1A120B357F3C12F9
:1005CB000B357580C07516FF7517047518997B016F
:1005DB007A00790012068C8B0E8A0F8910E94A4B30
:1005EB00609A7580E07E017F907D007B017A0179B6
:0405FB0090120459FD
:0105FF0022D9
:100949007BFF7A057944120A80120B2E7F027E0002
:10095900120A3A7580077516FF7517047518857B95
:0E096900017A00790012068C8B0B8A0C890D26
:01097700225D
:100A58007BFF7A057950120A80120B2E7516FF75E6
:100A680017047518A17B017A00790012068C8B0B8C
:070A78008A0C890D7580381E
:010A7F002254
:030023000207656C
:10076500C0E0C083C082C0D075D000C00630983BC1
:10077500C2980520E520AE1F7002051F142400F560
:100785008274003EF583E599F0D3E5209522E51FB7
:1007950095214006851F21852022D3E5209490E5EB
:1007A5001F94014006751F00752000D006D0D0D0DB
:0607B50082D083D0E03287
:100ABE00759852758920758780758DFD758BFDD261
:060ACE00ACD2AFD28E2273
:100AA500D3EF9400EE9400400F7D267C82DCFEDDC2
:080AB500FAEF1F70EB1E80E850
:010ABD002216
:0E0A2C007F0D120B357F0A120B357F147E00F2
:100A3A00EF1FAA0670011E4A6013E4FCFDC3ED9481
:0D0A4A007DEC940050EA0DBD00010C80F021
:010A5700227C
:10060C0002001EE493A3F8E493A34003F68001F2E6
:10061C0008DFF48029E493A3F85407240CC8C333EF
:10062C00C4540F4420C8834004F456800146F6DFBE
:10063C00E4800B0102040810204080900026E47E28
:10064C00019360BCA3FF543F30E509541FFEE493B3
:10065C00A360010ECF54C025E060A840B8E493A37A
:10066C00FAE493A3F8E493A3C8C582C8CAC583CAA5
:10067C00F0A3C8C582C8CAC583CADFE9DEE780BE5D
:0103560000A6
:10035700BB010689828A83E0225002E722BBFE02A4
:09036700E32289828A83E49322D7
:10037000E709F60870FA8046E709F20870FA803E4D
:1003800088828C83E709F0A370FA807EE309F6087F
:1003900070FA8076E309F20870FA806E88828C83A6
:1003A000E309F0A370FA806289828A83E0A3F608E9
:1003B00070FA805689828A83E0A3F20870FA804A34
:1003C00080D280FA80C680D4806580F2803180102F
:1003D00080A680EA809A80A880DA80E280CA803194
:1003E00089828A83ECFAE493A3C8C582C8CCC5830A
:1003F000CCF0A3C8C582C8CCC583CC70E9800D8978
:10040000828A83E493A3F60870F9ECFAA9F0EDFB75
:100410002289828A83ECFAE0A3C8C582C8CCC5834E
:10042000CCF0A3C8C582C8CCC583CC70EA80DD8976
:10043000828A83E493A3F20870F980CE88F0ED24D9
:1004400002B4040050C4F582EB2402B4040050BA94
:0904500023234582239003C073AD
:100AE900E4FFFE120357600C0FEF70010E09E97065
:050AF900F20A80EF226B
:10068C008B138A148915AB16AA17A9181203576075
:10069C0063AB13AA14A915120357605F851619854D
:1006AC00171A85181B8B1C8A1D891EAB19AA1AA92F
:1006BC001B120357FF6023AB1CAA1DA91E12035764
:1006CC006F701704251BF51BE4351AF51A740125F8
:1006DC001EF51EE4351DF51D80D1AB19AA1AA91BF8
:1006EC001203577002800D74012515F515E43514AD
:1006FC00F514809DAB13AA14A915227B007A0079FE
:02070C000022C9
:10045900EF4E6012EF60010EEDBB010B89828A83BA
:10046900F0A3DFFCDEFA2289F05007F709DFFCA9C7
:0C047900F022BBFEFCF309DFFCA9F0221E
:00000001FF
