:03000000020A955C
:0C0A9500787FE4F6D8FD758169020ADC68
:1007B5004F4B002B4350494E3A2052454144590076
:1007C50031003500534D5F50002B434D00534855C4
:1007D50054204F4B002E00434F4E4E454354204F5F
:1007E5004B003E002C22222C0041542B4346554EF3
:1007F5003D300D0A0041542B4346554E3D310D0AFF
:100805000041540D0A0041542B4350494E3F0D0AF7
:100815000041542B435245473F0D0A0041542B4399
:1008250053510D0A0041542B434950534855540D1B
:100835000A0041542B43474154543D300D0A0041B1
:10084500542B43504D533F0D0A0041542B434D4704
:10085500523D0041542B434D47443D0041542B43E9
:100865005354543D22434D4E4554220D0A004154E4
:100875002B43494943520D0A0041542B43494653E2
:10088500520D0A0041542B43495053544152543D93
:1008950022544350222C223139332E3131322E3914
:1008A500342E3534222C2239303031220D0A0041C4
:0C08B500542B43495053454E440D0A009B
:1005D100203C1000000000000000000000000000AE
:1005E100000000000000000000000000000000000A
:1005F10000000000000000000000000000000000FA
:1006010000000000000000000000000000000002E7
:1006110008000061900000000000000000000000E0
:1006210000000000000000000000000000000000C9
:1006310000000000000000000000000000000000B9
:1006410000000000000000000000000000000000A9
:100651000000000000000000000000000000000099
:100661000000000000000000000000000000000089
:100671000000000000000000000000000000000079
:100681000000000000000000000000000000000069
:100691000000000000000000000000000000000059
:1006A1000000000000000000000000000000000049
:1006B1000000000000000000000000000000000039
:1006C1000000000000000000000000000000000029
:1006D1000000000000000000000000000000000019
:1006E1000000000000000000000000000000000009
:1006F10000000000000000000000000000000000F9
:1007010000000000000000000000000000000000E8
:1007110000000000000000000000000000000000D8
:1007210000000000000000000000000000000000C8
:1007310000000000000000000000000000000000B8
:1007410000000000000000000000000000000000A8
:100751000000000000000000000000000000000098
:100761000000000000000000000000000000000088
:100771000000000000000000000000000000000078
:100781000000000000000000000000000000000068
:100791000000000000000000000000000000000058
:1007A10000000000000000020A0000020E0000022A
:0307B1000C000039
:0A0CD700E4F580F54C12002680FBC6
:10002600E54C7006120CAD0200A8E54C6401703A6E
:10003600120C83120C617BFF7A0779EE120C3C7F5F
:10004600647E00120C657561FF7562077563B57B8A
:10005600007A007910120B218B4F8A508951E94A98
:090066004B70030205D0754C0239
:07006F0022E54C640270362B
:10007600120C83120C617BFF7A0779FA120C3C1280
:100086000C617561FF7562077563B57B007A00794F
:1000960010120B218B4F8A508951E94A4B7003028B
:0500A60005D0754C03BC
:0700AB0022E54C64037039EB
:1000B200120C83120C617BFF7A087906120C3C1237
:1000C2000C617561FF7562077563B57B007A007913
:1000D20010120B218B4F8A508951E94A4B7003024F
:0800E20005D0120C83754C04DB
:0700EA0022E54C6404704D97
:1000F100120C83120C61C3E54E9414E54D64809497
:1001010080400280517BFF7A08790B120C3C120C63
:10011100617561FF7562077563B87B007A007910BC
:10012100120B218B4F8A508951E94A4B6006754C5D
:0C013100050204DB054EE54E7002054D92
:07013D0022E54C640570741B
:10014400120C83120C61D3E54E9432E54D64809415
:10015400804006754C010204DB7BFF7A0879161295
:100164000C3C120C617561FF7562077563C57B00F9
:100174007A007910120B218B4F8A508951E94A4B2E
:100184006006754C060204DB7561FF7562077563D2
:10019400C77B007A007910120B218B4F8A5089514A
:1001A400E94A4B6006754C060204DB054EE54E70C9
:0301B40002054DF4
:0701B70022E54C6406704EC6
:1001BE00120C83120C61D3E54E9432E54D6480949B
:1001CE00804006754C010204DB7BFF7A0879211210
:1001DE000C3C120C617561FF7562077563B57B008F
:1001EE007A007910120B218B4F8A508951E94A4BB4
:0D01FE0060030203BA054EE54E7002054D88
:0A020B0022E54C640760030203853E
:10021500120C83120C61758080C3E54E9432E54D56
:1002250064809480400B754C03E4F54DF54E020354
:10023500817BFF7A087944120C3C120C617561FFD1
:100245007562077563C97B007A007910120B218BE3
:10025500528A538954E94A4B601374062554F55460
:10026500E43553F553FAA9541209C5F555D3E555A7
:10027500648094B0500302037975560075570112D6
:100285000C98120C61750E00750F017BFF7A0879C9
:100295004F120C3CC3E557940AE5566480948040A0
:1002A50020AE56AF577C007D0A1209DEEF2430FFE1
:1002B500120018AE56AF577C007D0A1209DEED809C
:1002C50002E5572430FF1200187F0D1200187F0A2F
:1002D5001200187F327E00120C65E4F50EF50F7BD7
:1002E500017A007900120CC2C3EF9424EE64809465
:1002F5008040697561FF7562077563CE7B017A0081
:100305007900120B218B4F8A508951E94A4B604C79
:10031500C3E557940AE556648094804022AE56AFF3
:10032500577C007D0A1209DEEF2430F50CAE56AF7E
:10033500577C007D0A1209DEED2430F50D8009E5B4
:10034500572430F50CE4F50D754C09E4F50AF50B69
:10035500F54DF54E1208C1120C6180200557E55781
:1003650070020556D39432E556648094805003029A
:0F03750002848008054EE54E7002054DE4F580C8
:0703840022E54C640870370C
:10038B00120C83120C617BFF7A08792A120C3C1237
:10039B000C617561FF7562077563D27B007A00791A
:1003AB0010120B218B4F8A508951E94A4B6004750F
:0603BB004C0722754C0105
:0703C10022E54C64097037CE
:1003C800120C83120C617BFF7A087961120C3C7F56
:1003D800327E00120C657561FF7562077563B57B27
:1003E800007A007910120B218B4F8A508951E94A03
:0703F8004B6041754C10221F
:0603FF00E54C6410703AA9
:10040500120C83120C617BFF7A087973120C3C7F06
:10041500327E00120C657561FF7562077563B57BE9
:10042500007A007910120B218B4F8A508951E94AC5
:070435004B6004754C11221D
:09043C000204B8E54C64117036AD
:10044500120C83120C617BFF7A08797E120C3C1228
:100455000C617561FF7562077563DA7B007A007957
:1004650010120B218B4F8A508951E94A4B700302B8
:0504750005D0754C12DA
:07047A0022E54C6412703B07
:10048100120C83120C617BFF7A087989120C3C7F74
:10049100327E00120C657561FF7562077563DC7B46
:1004A100007A007910120B218B4F8A508951E94A49
:0A04B1004B6004754C1322754C08D3
:0A04BB0022E54C641360030205D033
:1004C500120C83120C61D3E54E9402E54D648094C1
:1004D500804009754C08E4F54DF54E227BFF7A08FE
:1004E50079B4120C3C120C617561FF756207756376
:1004F500E77B007A007910120B218B4F8A508951C6
:10050500E94A4B70030205C5E4F555F5567B017ABA
:10051500007900120CC2C3E5569FEE6480F8E555DC
:10052500648098501B74002556F58274003555F586
:1005350083E0FF1200180556E55670D1055580CDAC
:100545007F1A120018120C617561FF7562077563D9
:10055500B57B007A007910120B218B528A5389548E
:10056500E94A4B60517BFF7A087958120C3CE4F557
:1005750057F5587B007A00790C120CC2C3E5589FD9
:10058500EE6480F8E5576480985014740C2558F88B
:10059500E6FF1200180558E55870D8055780D47F36
:1005A5000D1200187F0A120018120C98754C08E4F9
:1005B500F54DF54E8012054EE54E700C054D800843
:0B05C500054EE54E7002054D120C15AE
:0105D0002208
:100003007F441200180F1200187F421200187F5508
:050013001200187F47F8
:080018003099FDC2998F992275
:100C3C008B598A5A895BAB59AA5AA95B1209C560B0
:100C4C0013055BE55B7002055A14F91209C5FF1216
:050C5C00001880E222F7
:100C83007E007F3C7D007B007A007910120A14E419
:050C9300F508F509223F
:100C98007E017F907D007B017A007900120A14E4BE
:050CA800F50AF50B2226
:1008C1007561FF7562077563E97B017A0079001232
:1008D1000B218B598A5A895BE94A4B70030209C47F
:1008E1007407255BF55BE4355AF55AFAA95B1209E1
:1008F100C5640A705B04255BF55BE4355AF55AE47F
:10090100F55CF55DAB59AA5AA95B1209C5700302E2
:1009110009C4B4200280731209C5FFB40D02806AB4
:10092100EFB40A028064AB59055BE55BAA5A700219
:10093100055A14F91209C5FF7400255DF58274008A
:10094100355CF583EFF0055DE55D70B8055C80B45D
:10095100AB59AA5AA95B1209C5640D7066740225C8
:100961005BF55BE4355AF55AE4F55CF55DAB59AAE4
:100971005AA95B1209C5604BB42002800D1209C54A
:10098100FFB40D028004EFB40A0F7400255DF582F7
:100991007400355CF583E4F022AB59055BE55BAA95
:1009A1005A7002055A14F91209C5FF7400255DF544
:1009B100827400355CF583EFF0055DE55D70AE0591
:0309C1005C80AAAD
:0109C4002210
:040C61007F1E7E0074
:100C6500EF1FAA0670011E4A6013E4FCFDC3ED9454
:0D0C75007DEC940050EA0DBD00010C80F0F4
:010C8200224F
:03002300020BA32A
:100BA300C0E0C083C082C0D075D000C000C0063092
:100BB3009853E50F450E7023C2980509E5097002A5
:100BC3000508142410F8A699C3E509943BE5089495
:100BD300004032750800750900802AC298050BE5AC
:100BE3000BAE0A7002050A142400F58274003EF568
:100BF30083E599F0C3E50B948FE50A9401400675EC
:100C03000A00750B00D006D000D0D0D082D083D09C
:020C1300E032CD
:100CAD00759852758780758920758DFDD28ED2AC61
:050CBD00D2AFD28E222F
:100C15007F647E00120C651200037F3A1200187B78
:100C2500007A007910120C3C7F3A1200181200036A
:070C35007F647E00020C65E4
:100AA100020CD7E493A3F8E493A34003F68001F288
:100AB10008DFF48029E493A3F85407240CC8C33356
:100AC100C4540F4420C8834004F456800146F6DF25
:100AD100E4800B01020408102040809005D1E47EDF
:100AE100019360BCA3FF543F30E509541FFEE4931A
:100AF100A360010ECF54C025E060A840B8E493A3E1
:100B0100FAE493A3F8E493A3C8C582C8CAC583CA0B
:100B1100F0A3C8C582C8CAC583CADFE9DEE780BEC3
:0107B4000044
:1009C500BB010689828A83E0225002E722BBFE0230
:0909D500E32289828A83E4932263
:1009DE00C2D5EC30E709B2D5E4C39DFDE49CFCEE34
:1009EE0030E715B2D5E4C39FFFE49EFE120A40C362
:1009FE00E49DFDE49CFC8003120A4030D507C3E45D
:060A0E009FFFE49EFE22A2
:100CC200E4FFFE1209C5600C0FEF70010E09E97016
:050CD200F20A80EF2290
:100B21008B5E8A5F8960AB61AA62A9631209C560A5
:100B310063AB5EAA5FA9601209C5605F85616485C8
:100B410062658563668B678A688969AB64AA65A9F2
:100B5100661209C5FF6023AB67AA68A9691209C5B6
:100B61006F7017042566F566E43565F56574012532
:100B710069F569E43568F56880D1AB64AA65A96651
:100B81001209C57002800D74012560F560E4355FBE
:100B9100F55F809DAB5EAA5FA960227B007A007938
:020BA100002230
:100A1400EF4E6012EF60010EEDBB010B89828A83F9
:100A2400F0A3DFFCDEFA2289F05007F709DFFCA906
:0C0A3400F022BBFEFCF309DFFCA9F0225D
:100A4000BC000BBE0029EF8DF084FFADF022E4CC9A
:100A5000F875F008EF2FFFEE33FEEC33FCEE9DEC63
:100A6000984005FCEE9DFE0FD5F0E9E4CEFD22EDA9
:100A7000F8F5F0EE8420D21CFEADF075F008EF2FF3
:100A8000FFED33FD4007985006D5F0F222C398FDE4
:050A90000FD5F0EA2281
:00000001FF
